{
  "txid": "c09aef57fcb1ad446bef6d1f6556a13c305022087a9115ee8b9735beae4c6f03",
  "hash": "c09aef57fcb1ad446bef6d1f6556a13c305022087a9115ee8b9735beae4c6f03",
  "version": 1,
  "size": 349,
  "vsize": 349,
  "weight": 1396,
  "locktime": 0,
  "vin": [
    {
      "txid": "24afa196b6c8358221e1702d68db178a15f4a778aef1bada9ca56f4e16e1d653",
      "vout": 3,
      "scriptSig": {
        "asm": "30440220069df4f7cc9a92c28266550efa1e72d32f44a9209f8f527a4f3f7a240032ee2e02206066b67d8a4f9445c908665787c6370ce58f8f8c622e42b51525a7c45f9154c8[ALL] 03c802623088776d440c3fb9e8d82952975b416983327fb8873a021af87786d3ca",
        "hex": "4730440220069df4f7cc9a92c28266550efa1e72d32f44a9209f8f527a4f3f7a240032ee2e02206066b67d8a4f9445c908665787c6370ce58f8f8c622e42b51525a7c45f9154c8012103c802623088776d440c3fb9e8d82952975b416983327fb8873a021af87786d3ca"
      },
      "sequence": 4294967293
    }
  ],
  "vout": [
    {
      "value": 0,
      "n": 0,
      "scriptPubKey": {
        "asm": "OP_RETURN 58325b31fb8f33d5921945a2c2496162415e56edef9c924b4ef804311a653af5d96f05b5d367b248ffe23fbceda2c5ce71fe00ae3fd47c1b3eb1365ba3ca297e49e1d3000ac5a0003c000ab7b801a903",
        "desc": "raw(6a4c5058325b31fb8f33d5921945a2c2496162415e56edef9c924b4ef804311a653af5d96f05b5d367b248ffe23fbceda2c5ce71fe00ae3fd47c1b3eb1365ba3ca297e49e1d3000ac5a0003c000ab7b801a903)#2q2xuj0j",
        "hex": "6a4c5058325b31fb8f33d5921945a2c2496162415e56edef9c924b4ef804311a653af5d96f05b5d367b248ffe23fbceda2c5ce71fe00ae3fd47c1b3eb1365ba3ca297e49e1d3000ac5a0003c000ab7b801a903",
        "type": "nulldata"
      }
    },
    {
      "value": 0.00188888,
      "n": 1,
      "scriptPubKey": {
        "asm": "OP_HASH160 a89c294e4ac304c8849dbed7edb2dabcc2d4ffae OP_EQUAL",
        "desc": "addr(3H4YX3yfH645keL1KFxa3sEh6ynEEpWmL6)#draph0qj",
        "hex": "a914a89c294e4ac304c8849dbed7edb2dabcc2d4ffae87",
        "address": "3H4YX3yfH645keL1KFxa3sEh6ynEEpWmL6",
        "type": "scripthash"
      }
    },
    {
      "value": 0.00188888,
      "n": 2,
      "scriptPubKey": {
        "asm": "OP_DUP OP_HASH160 23086a767de0143523e818d4273ddfe6d9e4bbcc OP_EQUALVERIFY OP_CHECKSIG",
        "desc": "addr(14CEjTd5ci3228J45GdnGeUKLSSeCWUQxK)#9nnfr7qs",
        "hex": "76a91423086a767de0143523e818d4273ddfe6d9e4bbcc88ac",
        "address": "14CEjTd5ci3228J45GdnGeUKLSSeCWUQxK",
        "type": "pubkeyhash"
      }
    },
    {
      "value": 3.75727786,
      "n": 3,
      "scriptPubKey": {
        "asm": "OP_DUP OP_HASH160 3a45797dbd5256d42ebe2d4a1613b59ad02dee46 OP_EQUALVERIFY OP_CHECKSIG",
        "desc": "addr(16K7RJeWUcceXuaZMRMCdSWWmqFqTVuyF1)#ke7kwyqa",
        "hex": "76a9143a45797dbd5256d42ebe2d4a1613b59ad02dee4688ac",
        "address": "16K7RJeWUcceXuaZMRMCdSWWmqFqTVuyF1",
        "type": "pubkeyhash"
      }
    }
  ],
  "hex": "010000000153d6e1164e6fa59cdabaf1ae78a7f4158a17db682d70e1218235c8b696a1af24030000006a4730440220069df4f7cc9a92c28266550efa1e72d32f44a9209f8f527a4f3f7a240032ee2e02206066b67d8a4f9445c908665787c6370ce58f8f8c622e42b51525a7c45f9154c8012103c802623088776d440c3fb9e8d82952975b416983327fb8873a021af87786d3cafdffffff040000000000000000536a4c5058325b31fb8f33d5921945a2c2496162415e56edef9c924b4ef804311a653af5d96f05b5d367b248ffe23fbceda2c5ce71fe00ae3fd47c1b3eb1365ba3ca297e49e1d3000ac5a0003c000ab7b801a903d8e102000000000017a914a89c294e4ac304c8849dbed7edb2dabcc2d4ffae87d8e10200000000001976a91423086a767de0143523e818d4273ddfe6d9e4bbcc88acaa266516000000001976a9143a45797dbd5256d42ebe2d4a1613b59ad02dee4688ac00000000",
  "blockhash": "000000000000000000071514411054c06283487457045e1d5b1266fb72adb41c",
  "confirmations": 48004,
  "time": 1634794509,
  "blocktime": 1634794509
}
