{"txid":"1e0279258ee61a978656b5e37f7dcdf814e09c9e5aa2af998e9e4ff8d61e0b88","hash":"1e0279258ee61a978656b5e37f7dcdf814e09c9e5aa2af998e9e4ff8d61e0b88","version":1,"size":350,"vsize":350,"weight":1400,"locktime":0,"vin":[{"txid":"e8a16843cc6301b2c4dc2cfd6625c124c55e66745b4a088dc74f0cc6480fa5fb","vout":3,"scriptSig":{"asm":"3045022100e1d9cdac5f1ca6edc07a0792b0b1dd62c77292be32274d83e663f0007833677702203870d87ea9ad44f2157bf8cf0a0e5a3ab51b7d7311335b07abab983ea6331664[ALL] 02de78ca64a1cb789d2af771c7fb74ac5c373f548557f582354ddd2ec7c00e4e55","hex":"483045022100e1d9cdac5f1ca6edc07a0792b0b1dd62c77292be32274d83e663f0007833677702203870d87ea9ad44f2157bf8cf0a0e5a3ab51b7d7311335b07abab983ea6331664012102de78ca64a1cb789d2af771c7fb74ac5c373f548557f582354ddd2ec7c00e4e55"},"sequence":4294967293}],"vout":[{"value":0.00000000,"n":0,"scriptPubKey":{"asm":"OP_RETURN 58325b7531c5969af602440e8ea243c42cf31b5eca0d89f35bf4c79dfb21ef1142c79a939d2285c918a1cb79715621457e9f741719efc76006ee0df612f9d66343ed3d000b7ea90286000b7b2e055f2a","desc":"raw(6a4c5058325b7531c5969af602440e8ea243c42cf31b5eca0d89f35bf4c79dfb21ef1142c79a939d2285c918a1cb79715621457e9f741719efc76006ee0df612f9d66343ed3d000b7ea90286000b7b2e055f2a)#rnysdpvl","hex":"6a4c5058325b7531c5969af602440e8ea243c42cf31b5eca0d89f35bf4c79dfb21ef1142c79a939d2285c918a1cb79715621457e9f741719efc76006ee0df612f9d66343ed3d000b7ea90286000b7b2e055f2a","type":"nulldata"}},{"value":0.00077500,"n":1,"scriptPubKey":{"asm":"OP_DUP OP_HASH160 23086a767de0143523e818d4273ddfe6d9e4bbcc OP_EQUALVERIFY OP_CHECKSIG","desc":"addr(14CEjTd5ci3228J45GdnGeUKLSSeCWUQxK)#9nnfr7qs","hex":"76a91423086a767de0143523e818d4273ddfe6d9e4bbcc88ac","address":"14CEjTd5ci3228J45GdnGeUKLSSeCWUQxK","type":"pubkeyhash"}},{"value":0.00077500,"n":2,"scriptPubKey":{"asm":"OP_HASH160 f717847b4b9b32fe17c060b176ee81f4057036be OP_EQUAL","desc":"addr(3QDWzx6viYoKQWiGdRQ15pqirQB8FqAg5E)#kw35few6","hex":"a914f717847b4b9b32fe17c060b176ee81f4057036be87","address":"3QDWzx6viYoKQWiGdRQ15pqirQB8FqAg5E","type":"scripthash"}},{"value":2.38216805,"n":3,"scriptPubKey":{"asm":"OP_DUP OP_HASH160 aa5b5ff11b647a90ce2dae34417825deb3e351d7 OP_EQUALVERIFY OP_CHECKSIG","desc":"addr(1GXmLScpxPSErm16FYFUvwGzGbK6ceJS96)#jqghzhke","hex":"76a914aa5b5ff11b647a90ce2dae34417825deb3e351d788ac","address":"1GXmLScpxPSErm16FYFUvwGzGbK6ceJS96","type":"pubkeyhash"}}],"hex":"0100000001fba50f48c60c4fc78d084a5b74665ec524c12566fd2cdcc4b20163cc4368a1e8030000006b483045022100e1d9cdac5f1ca6edc07a0792b0b1dd62c77292be32274d83e663f0007833677702203870d87ea9ad44f2157bf8cf0a0e5a3ab51b7d7311335b07abab983ea6331664012102de78ca64a1cb789d2af771c7fb74ac5c373f548557f582354ddd2ec7c00e4e55fdffffff040000000000000000536a4c5058325b7531c5969af602440e8ea243c42cf31b5eca0d89f35bf4c79dfb21ef1142c79a939d2285c918a1cb79715621457e9f741719efc76006ee0df612f9d66343ed3d000b7ea90286000b7b2e055f2abc2e0100000000001976a91423086a767de0143523e818d4273ddfe6d9e4bbcc88acbc2e01000000000017a914f717847b4b9b32fe17c060b176ee81f4057036be8765e6320e000000001976a914aa5b5ff11b647a90ce2dae34417825deb3e351d788ac00000000","blockhash":"000000000000000000077858baee2eaf4472a28fb561685d5a77a8e1d9451625","confirmations":11,"time":1662737456,"blocktime":1662737456}
